:020000040000FA
:08000000803102288731DD2F59
:100C3C00023400340034B434640080010131890B77
:100C4C00232E0034FE0012001E00FE0B292E003451
:100C5C002000911C322E332E2E2E91100800F030D5
:100C6C00210099003F30980023008C0120008C015A
:100C7C001F3021008C0022008C0123008D012000EC
:100C8C008D0121008D0122008D0120008E018A3002
:100C9C0021008E0022008E01200090012100900185
:100CAC00220090010530F1000F30F000F130890B7B
:100CBC005D2EF00B5D2EF10B5D2E00000C3026002E
:100CCC00930022001D13673020009B001E3026006D
:100CDC00910020001C159C101C1408004C349F34EF
:100CEC00ED343E349A34003400340034273400346C
:100CFC0000340034F134A034D2340134B1345D34D6
:100D0C002F34FC346734003400340034DA340034CB
:100D1C00003400340C3462341034C334FA34FE34EE
:100D2C008C345F342C340034003400349134EB3484
:100D3C0099344A344734C134B334603407343C34C6
:100D4C004E349D34D1340034003400346C340034CF
:100D5C0000340034BA3403347134A2342000B901A5
:100D6C00B801B7010C18BB2EBC2EC02E8D16391530
:100D7C00B716C32E8D123911B7128C18C62EC72E6A
:100D8C00CB2E0D16B9153716CE2E0D12B9113712F2
:100D9C000C19D12ED22ED62E8D153916B715D92E5B
:100DAC008D113912B7118C19DC2EDD2EE12E0D159B
:100DBC00B9163715E42E0D11B91237110C1AE72E8E
:100DCC00E82EEC2E8D14B816B714EF2E8D10B81229
:100DDC00B7108E19F22EF32EF72E0D143817371478
:100DEC00FA2E0D103813371008008631352686314F
:100DFC008631B4268631C8302000A0008B30A1008B
:100E0C00A201A301A401A501A601A701A801A901A2
:100E1C004C30AA003908A2003808A300B81A172FC2
:100E2C00182F242F381B1B2F1C2F242F3908A600FA
:100E3C003908A7003908A8003908A9003603031D92
:100E4C00282F292F2D2FB601D530AA00332F370884
:100E5C00A03E860087010108AA00FD017D08203E06
:100E6C008600870101088731532786310130FC0049
:100E7C007C08FD070B307D02031C452F462F342FB9
:100E8C001E3026009100D030FC00CA30890B4C2F4C
:100E9C00FC0B4C2FFE2E80310228FB00713086009B
:100EAC00003087000830F00000301E00F00B5B2F84
:100EBC007B080139F1007B360139F2007B08F00028
:100ECC000230F036890B672F70080139F3007B086C
:100EDC00F0000330F036890B702F70080139F400E4
:100EEC007B08F0000430F036890B792F700801393B
:100EFC00F5007B08F0000530F036890B822F700866
:100F0C000139F6007B08F0000630F036890B8B2F88
:100F1C0070080139F7007B08F0000730F036890BB8
:100F2C00942F70080139F80086312E26873137301E
:100F3C0026009100FA017A08713E860087010103B0
:100F4C00031DA92FAA2FB12F7A08713E86008701A5
:100F5C001E308100B72F7A08713E8600870137302A
:100F6C00810086312E2687317A08713E86008701F2
:100F7C000108260091000130F0007008FA070830D3
:100F8C007A02031CCA2FCB2FA12FF90186312E26F2
:100F9C0087311E30260091000130F0007008F907EF
:100FAC0008307902031CDB2FDC2FCC2F08001E30FD
:100FBC008400863085003A3086000030870004308B
:100FCC008631282687317430840086308500A03025
:100FDC00860000308700403086312826873120304B
:100FEC008400003085001A3086312226873120009B
:040FFC008631FB2E11
:020000040001F9
:04000E00A40EFF1F1E
:00000001FF
