:020000040000FA
:08000000803102288731DD2F59
:100C5C00023400340034B434640080010131890B57
:100C6C00332E0034FE0012001E00FE0B392E003411
:100C7C002000911C422E432E3E2E91100800F03085
:100C8C00210099003F30980023008C0120008C013A
:100C9C001F3021008C0022008C0123008D012000CC
:100CAC008D0121008D0122008D0120008E018A30E2
:100CBC0021008E0022008E01200090012100900165
:100CCC00220090010530F1000F30F000F130890B5B
:100CDC006D2EF00B6D2EF10B6D2E00000C302600DE
:100CEC00930022001D13673020009B001E3026004D
:100CFC00910020001C159C101C1408004C349F34CF
:100D0C00ED3462349A340034003400342734003427
:100D1C00003400347334A034713401348E345D34B7
:100D2C002F34FC346734003400340034DA340034AB
:100D3C0000340034B134A034713401342D34FE3419
:100D4C008C345F342C340034003400343834EB34BD
:100D5C0099344A341234C134B3346034EF343C34F3
:100D6C004E349D34D1340034003400346C340034AF
:100D7C0000340034D03403347134A2342000B80170
:100D8C00B701B6010C18CB2ECC2ED02E8D163815E3
:100D9C00B616D32E8D123811B6128C18D62ED72E1D
:100DAC00DB2E0D16B8153616DE2E0D12B8113612B6
:100DBC000C19E12EE22EE62E8D153816B615E92EFD
:100DCC008D113812B6118C19EC2EED2EF12E0D154D
:100DDC00B8163615F42E0D11B81236110C1AF72E52
:100DEC00F82EFC2E8D14B716B614FF2E8D10B712DC
:100DFC00B6108E19022F032F072F0D143717361428
:100E0C000A2F0D103713361008008631452687310E
:100E1C008631C4268731C8302000A0008B30A10059
:100E2C00A201A301A401A501A601A701A801A90182
:100E3C004C30AA003808A2003708A3003503031D64
:100E4C00282F292F2D2FB501D530AA00332F360886
:100E5C00A03E860087010108AA00FD017D08203E06
:100E6C008600870101088731532787310130FC0048
:100E7C007C08FD070B307D02031C452F462F342FB9
:100E8C001E3026009100D030FC00CA30890B4C2F4C
:100E9C00FC0B4C2F0E2F80310228FB00713086008A
:100EAC00003087000830F00000301E00F00B5B2F84
:100EBC007B080139F1007B360139F2007B08F00028
:100ECC000230F036890B672F70080139F3007B086C
:100EDC00F0000330F036890B702F70080139F400E4
:100EEC007B08F0000430F036890B792F700801393B
:100EFC00F5007B08F0000530F036890B822F700866
:100F0C000139F6007B08F0000630F036890B8B2F88
:100F1C0070080139F7007B08F0000730F036890BB8
:100F2C00942F70080139F80086313E26873137300E
:100F3C0026009100FA017A08713E860087010103B0
:100F4C00031DA92FAA2FB12F7A08713E86008701A5
:100F5C001E308100B72F7A08713E8600870137302A
:100F6C00810086313E2687317A08713E86008701E2
:100F7C000108260091000130F0007008FA070830D3
:100F8C007A02031CCA2FCB2FA12FF90186313E26E2
:100F9C0087311E30260091000130F0007008F907EF
:100FAC0008307902031CDB2FDC2FCC2F08002E30ED
:100FBC00840086308500393086000030870004308C
:100FCC008631382687318430840086308500A03005
:100FDC00860000308700403086313826873120303B
:100FEC00840000308500193086313226873120008C
:040FFC0087310B2FFF
:020000040001F9
:04000E00A40EFF1F1E
:00000001FF
