:020000040000FA
:08000000803102288731DD2F59
:100C0E00023400340034B434640080010131890BA5
:100C1E000C2E0034FE0012001E00FE0B122E0034AD
:100C2E002000911C1B2E1C2E172E91100800F03048
:100C3E00210099003F30980023008C0120008C0188
:100C4E001F3021008C0022008C0123008D0120001A
:100C5E008D0121008D0122008D0120008E018A3030
:100C6E0021008E0022008E012000900121009001B3
:100C7E00220090010530F1000F30F000F130890BA9
:100C8E00462EF00B462EF10B462E00000C302600A1
:100C9E00930022001D13673020009B001E3026009B
:100CAE00910020001C159C101C1408004C349F341D
:100CBE00ED343E349A34003400340034273400349A
:100CCE00003400347334A034D23401348E345D34A5
:100CDE002F34FC346734003400340034DA340034FA
:100CEE0000340034B13462341034C3342D34FE3445
:100CFE008C345F342C340034003400343834EB340C
:100D0E0099344A341234C134B3346034EF343C3441
:100D1E004E349D34D1340034003400346C340034FD
:100D2E0000340034D03403347134A23486311E269C
:100D3E00863120008E19A42EA52EA72EB501B50A38
:100D4E008631EC268631C8302000A0008B30A10001
:100D5E00A201A301A401A501A601A701A801A90151
:100D6E004C30AA003908A2003808A3003603031D30
:100D7E00C12EC22EC62EB601D530AA00CC2E3708F3
:100D8E00A03E860087010108AA00FD017D08203ED5
:100D9E008600870101088731532786310130FC0018
:100DAE007C08FD070B307D02031CDE2EDF2ECD2EC0
:100DBE001E3026009100D030FC00CA30890BE52E83
:100DCE00FC0BE52EA72E803102282000B901B801B8
:100DDE00B7010C18F32EF42EF82E8D163915B71602
:100DEE00FB2E8D123911B7128C18FE2EFF2E032FEB
:100DFE000D16B9153716062F0D12B91137120C191B
:100E0E00092F0A2F0E2F8D153916B715112F8D118B
:100E1E003912B7118C19142F152F192F0D15B9164C
:100E2E0037151C2F0D11B91237113503031D202F45
:100E3E00212F3A2F0C1A242F252F292F8D14B81657
:100E4E00B7142C2F8D10B812B7108E192F2F302FDC
:100E5E00372F0D140630B900B801B601B60A522F5D
:100E6E008D10B601522F0C1A3D2F3E2F452F8D148B
:100E7E000630B900B801B601B60A472F8D10B6017B
:100E8E008E194A2F4B2F4F2F0D1438173714522F00
:100E9E000D10381337100800FB007130860000303B
:100EAE0087000830F00000301E00F00B5B2F7B082F
:100EBE000139F1007B360139F2007B08F000023077
:100ECE00F036890B672F70080139F3007B08F000AC
:100EDE000330F036890B702F70080139F4007B084F
:100EEE00F0000430F036890B792F70080139F500C7
:100EFE007B08F0000530F036890B822F700801391F
:100F0E00F6007B08F0000630F036890B8B2F700848
:100F1E000139F7007B08F0000730F036890B942F6B
:100F2E0070080139F80086311726873137302600D0
:100F3E009100FA017A08713E860087010103031DB4
:100F4E00A92FAA2FB12F7A08713E860087011E3075
:100F5E008100B72F7A08713E8600870137308100F5
:100F6E008631172687317A08713E8600870101087F
:100F7E00260091000130F0007008FA0708307A025E
:100F8E00031CCA2FCB2FA12FF901863117268731CB
:100F9E001E30260091000130F0007008F90708306D
:100FAE007902031CDB2FDC2FCC2F080007308400C6
:100FBE00863085003A308600003087000430863156
:100FCE00112687315D30840086308500A030860082
:100FDE000030870040308631112687312030840062
:100FEE00003085001A3086310B268731200086317D
:020FFE009D2E26
:020000040001F9
:04000E00A40EFF1F1E
:00000001FF
